{
  "contractName": "contractNotas",
  "abi": [
    {
      "inputs": [],
      "stateMutability": "nonpayable",
      "type": "constructor"
    },
    {
      "anonymous": false,
      "inputs": [
        {
          "indexed": false,
          "internalType": "bytes32",
          "name": "",
          "type": "bytes32"
        },
        {
          "indexed": false,
          "internalType": "uint256",
          "name": "",
          "type": "uint256"
        }
      ],
      "name": "event_alumno_evaluado",
      "type": "event"
    },
    {
      "anonymous": false,
      "inputs": [
        {
          "indexed": false,
          "internalType": "string",
          "name": "",
          "type": "string"
        }
      ],
      "name": "event_revision",
      "type": "event"
    },
    {
      "inputs": [],
      "name": "profesor",
      "outputs": [
        {
          "internalType": "address",
          "name": "",
          "type": "address"
        }
      ],
      "stateMutability": "view",
      "type": "function",
      "constant": true
    },
    {
      "inputs": [
        {
          "internalType": "string",
          "name": "_idAlumno",
          "type": "string"
        },
        {
          "internalType": "uint256",
          "name": "_nota",
          "type": "uint256"
        }
      ],
      "name": "evaluar",
      "outputs": [],
      "stateMutability": "nonpayable",
      "type": "function"
    },
    {
      "inputs": [
        {
          "internalType": "string",
          "name": "_idAlumno",
          "type": "string"
        }
      ],
      "name": "getNotas",
      "outputs": [
        {
          "internalType": "uint256",
          "name": "",
          "type": "uint256"
        }
      ],
      "stateMutability": "view",
      "type": "function",
      "constant": true
    },
    {
      "inputs": [
        {
          "internalType": "string",
          "name": "_idAlumno",
          "type": "string"
        }
      ],
      "name": "revisionNota",
      "outputs": [],
      "stateMutability": "nonpayable",
      "type": "function"
    },
    {
      "inputs": [],
      "name": "getRevisiones",
      "outputs": [
        {
          "internalType": "string[]",
          "name": "",
          "type": "string[]"
        }
      ],
      "stateMutability": "view",
      "type": "function",
      "constant": true
    }
  ],
  "bytecode": "0x60806040526040518060400160405280600481526020017f4a6f616e000000000000000000000000000000000000000000000000000000008152506001908051906020019061004f9291906100a2565b5034801561005c57600080fd5b50336000806101000a81548173ffffffffffffffffffffffffffffffffffffffff021916908373ffffffffffffffffffffffffffffffffffffffff1602179055506101a6565b8280546100ae90610174565b90600052602060002090601f0160209004810192826100d05760008555610117565b82601f106100e957805160ff1916838001178555610117565b82800160010185558215610117579182015b828111156101165782518255916020019190600101906100fb565b5b5090506101249190610128565b5090565b5b80821115610141576000816000905550600101610129565b5090565b7f4e487b7100000000000000000000000000000000000000000000000000000000600052602260045260246000fd5b6000600282049050600182168061018c57607f821691505b602082108114156101a05761019f610145565b5b50919050565b610b5680620001b66000396000f3fe608060405234801561001057600080fd5b50600436106100575760003560e01c8063383bebae1461005c5780636497a55a1461007857806367509ac014610094578063cea7dae7146100c4578063df096576146100e2575b600080fd5b61007660048036038101906100719190610695565b610100565b005b610092600480360381019061008d91906106f1565b610211565b005b6100ae60048036038101906100a991906106f1565b610287565b6040516100bb9190610749565b60405180910390f35b6100cc6102d5565b6040516100d991906108ae565b60405180910390f35b6100ea61043e565b6040516100f79190610911565b60405180910390f35b338073ffffffffffffffffffffffffffffffffffffffff1660008054906101000a900473ffffffffffffffffffffffffffffffffffffffff1673ffffffffffffffffffffffffffffffffffffffff161461018f576040517f08c379a0000000000000000000000000000000000000000000000000000000008152600401610186906109af565b60405180910390fd5b6000836040516020016101a29190610a0b565b6040516020818303038152906040528051906020012090508260026000838152602001908152602001600020819055507f88657080b86b511a053510a628fd1d9e3cbecad22dbc72eb080c71878d07b1da8184604051610203929190610a3b565b60405180910390a150505050565b60038190806001815401808255809150506001900390600052602060002001600090919091909150908051906020019061024c929190610462565b507fdbbb0dd2f74f5331f934d5393da5971f45693b0659d4daa1deaab06eedba07bf8160405161027c9190610a9d565b60405180910390a150565b6000808260405160200161029b9190610a0b565b6040516020818303038152906040528051906020012090506000600260008381526020019081526020016000205490508092505050919050565b6060338073ffffffffffffffffffffffffffffffffffffffff1660008054906101000a900473ffffffffffffffffffffffffffffffffffffffff1673ffffffffffffffffffffffffffffffffffffffff1614610366576040517f08c379a000000000000000000000000000000000000000000000000000000000815260040161035d906109af565b60405180910390fd5b6003805480602002602001604051908101604052809291908181526020016000905b828210156104345783829060005260206000200180546103a790610aee565b80601f01602080910402602001604051908101604052809291908181526020018280546103d390610aee565b80156104205780601f106103f557610100808354040283529160200191610420565b820191906000526020600020905b81548152906001019060200180831161040357829003601f168201915b505050505081526020019060010190610388565b5050505091505090565b60008054906101000a900473ffffffffffffffffffffffffffffffffffffffff1681565b82805461046e90610aee565b90600052602060002090601f01602090048101928261049057600085556104d7565b82601f106104a957805160ff19168380011785556104d7565b828001600101855582156104d7579182015b828111156104d65782518255916020019190600101906104bb565b5b5090506104e491906104e8565b5090565b5b808211156105015760008160009055506001016104e9565b5090565b6000604051905090565b600080fd5b600080fd5b600080fd5b600080fd5b6000601f19601f8301169050919050565b7f4e487b7100000000000000000000000000000000000000000000000000000000600052604160045260246000fd5b61056c82610523565b810181811067ffffffffffffffff8211171561058b5761058a610534565b5b80604052505050565b600061059e610505565b90506105aa8282610563565b919050565b600067ffffffffffffffff8211156105ca576105c9610534565b5b6105d382610523565b9050602081019050919050565b82818337600083830152505050565b60006106026105fd846105af565b610594565b90508281526020810184848401111561061e5761061d61051e565b5b6106298482856105e0565b509392505050565b600082601f83011261064657610645610519565b5b81356106568482602086016105ef565b91505092915050565b6000819050919050565b6106728161065f565b811461067d57600080fd5b50565b60008135905061068f81610669565b92915050565b600080604083850312156106ac576106ab61050f565b5b600083013567ffffffffffffffff8111156106ca576106c9610514565b5b6106d685828601610631565b92505060206106e785828601610680565b9150509250929050565b6000602082840312156107075761070661050f565b5b600082013567ffffffffffffffff81111561072557610724610514565b5b61073184828501610631565b91505092915050565b6107438161065f565b82525050565b600060208201905061075e600083018461073a565b92915050565b600081519050919050565b600082825260208201905092915050565b6000819050602082019050919050565b600081519050919050565b600082825260208201905092915050565b60005b838110156107ca5780820151818401526020810190506107af565b838111156107d9576000848401525b50505050565b60006107ea82610790565b6107f4818561079b565b93506108048185602086016107ac565b61080d81610523565b840191505092915050565b600061082483836107df565b905092915050565b6000602082019050919050565b600061084482610764565b61084e818561076f565b93508360208202850161086085610780565b8060005b8581101561089c578484038952815161087d8582610818565b94506108888361082c565b925060208a01995050600181019050610864565b50829750879550505050505092915050565b600060208201905081810360008301526108c88184610839565b905092915050565b600073ffffffffffffffffffffffffffffffffffffffff82169050919050565b60006108fb826108d0565b9050919050565b61090b816108f0565b82525050565b60006020820190506109266000830184610902565b92915050565b600082825260208201905092915050565b7f536f6c6f20656c2070726f6665736f72207075656465206576616c756172206160008201527f206c6f7320616c756d6e6f730000000000000000000000000000000000000000602082015250565b6000610999602c8361092c565b91506109a48261093d565b604082019050919050565b600060208201905081810360008301526109c88161098c565b9050919050565b600081905092915050565b60006109e582610790565b6109ef81856109cf565b93506109ff8185602086016107ac565b80840191505092915050565b6000610a1782846109da565b915081905092915050565b6000819050919050565b610a3581610a22565b82525050565b6000604082019050610a506000830185610a2c565b610a5d602083018461073a565b9392505050565b6000610a6f82610790565b610a79818561092c565b9350610a898185602086016107ac565b610a9281610523565b840191505092915050565b60006020820190508181036000830152610ab78184610a64565b905092915050565b7f4e487b7100000000000000000000000000000000000000000000000000000000600052602260045260246000fd5b60006002820490506001821680610b0657607f821691505b60208210811415610b1a57610b19610abf565b5b5091905056fea26469706673582212200e8ec9ec18a68f4a05cf765131af465a34d73ef20b525c3eeef2e1bd7fcd5ee864736f6c63430008090033",
  "immutableReferences": {},
  "source": "// SPDX-License-Identifier: MIT\npragma solidity >=0.8.0 <=0.8.10;\n//pragma experimental ABIEncoderV2;\n\ncontract contractNotas{\n    \n    // Direccion del profesor\n    address public profesor;\n    string my_string = \"Joan\";\n    \n    // Constructor\n    constructor(){\n        profesor = msg.sender;\n    }\n    \n    // Mapping para relacionar el hash de la indentidad del alumno\n    mapping (bytes32 => uint) mapNotas;\n    \n    // Array de alumnos que pidan revision de examenes\n    string [] revisiones;\n    \n    // Eventos\n    event event_alumno_evaluado(bytes32, uint);\n    event event_revision(string);\n    \n    //Creamos la funciona para evaluar a los alumnos\n    function evaluar(string memory _idAlumno, uint _nota) public onlyProfesor(msg.sender){\n        //Hash de la identificacion del alumno\n        bytes32 hash_idAlumno = keccak256(abi.encodePacked(_idAlumno));\n        //Relacion entre el hash de la identificacion del alumno y su nota\n        mapNotas[hash_idAlumno] = _nota;\n        \n        emit event_alumno_evaluado(hash_idAlumno, _nota);\n    \n    }\n    \n    // modificador para controlar que solo pueda evaluar el profesor\n    modifier onlyProfesor(address _direccion){\n        require(profesor==_direccion,\"Solo el profesor puede evaluar a los alumnos\");\n        _;\n    }\n    \n    // Visualizar notas\n    function getNotas(string memory _idAlumno) public view returns(uint){\n        //Hash del alumno\n        bytes32 hash_idAlumno = keccak256(abi.encodePacked(_idAlumno));\n        // Nota asociada al hash del alumno\n        uint nota_alumno = mapNotas[hash_idAlumno];\n        //visualizar la nota_alumno\n        return nota_alumno;\n    }\n    \n    //Funcion para pedir una reivsion del examen\n    function revisionNota(string memory _idAlumno) public{\n        //Almacenamiento de la identidad del alumno en un array\n        revisiones.push(_idAlumno);\n        emit event_revision(_idAlumno);\n    }\n    \n    //Funcion para ver los alumnos que han solicitado la revision del examen\n    function getRevisiones() public view onlyProfesor(msg.sender) returns(string[] memory){\n        return revisiones;\n    }\n    \n    \n}",
  "sourcePath": "V:\\_RelaxingCup\\cursos\\Solidity\\03_NFT_ETH_Ganache_Truffle_React\\03_Proyecto_truffle\\contracts\\notas.sol",
  "compiler": {
    "name": "solc",
    "version": "0.8.9+commit.e5eed63a.Emscripten.clang"
  },
  "schemaVersion": "3.4.3",
  "updatedAt": "2021-11-10T20:30:33.628Z",
  "networkType": "ethereum",
  "devdoc": {
    "kind": "dev",
    "methods": {},
    "version": 1
  },
  "userdoc": {
    "kind": "user",
    "methods": {},
    "version": 1
  }
}